:100000000C942A000C9434000C9434000C943400AA
:100010000C9434000C9434000C9434000C94340090
:100020000C9434000C9434000C9434000C94340080
:100030000C9434000C9434000C9434000C94340070
:100040000C9434000C9434000C9434000C94340060
:100050000C94340011241FBECFE5D4E0DEBFCDBF29
:100060000E9441000C9449000C94000090BD89B995
:1000700088E18AB986E880BD08955D9BFECF8CB982
:10008000089585E090E00E94360081E60E943D00E0
:06009000FCCFF894FFCF45
:00000001FF
