:100000000C942A000C9434000C9434000C943400AA
:100010000C9434000C9434000C9434000C94340090
:100020000C9434000C9434000C9434000C94340080
:100030000C9434000C9434000C9434000C94340070
:100040000C9434000C9434000C9434000C94340060
:100050000C94340011241FBECFE5D4E0DEBFCDBF29
:100060000E9465000C9490000C940000829592957B
:10007000907F9827807F98279C0140E050E060E4C3
:1000800072E48FE090E00E946E00215031091CB8AC
:100090008BB180648BB98AB1886F8AB98AB1887F45
:1000A0008AB980B58F7780BD80B5832B80BD89B13B
:1000B000282B29B980B5866880BD80B5867880BD3B
:1000C00008955D9BFECF8CB90895789480E895E201
:1000D0000E94360081E00E946100FCCFA1E21A2E4E
:1000E000AA1BBB1BFD010DC0AA1FBB1FEE1FFF1FDC
:1000F000A217B307E407F50720F0A21BB30BE40B2C
:10010000F50B661F771F881F991F1A9469F7609572
:100110007095809590959B01AC01BD01CF0108952C
:04012000F894FFCF81
:00000001FF
