:100000000C946B000C947D000C947D000C947D008E
:100010000C947D000C947D000C947D000C947D006C
:100020000C947D000C947D000C947D000C947D005C
:100030000C947D000C947D000C947D000C947D004C
:100040000C947D000C947D000C947D000C947D003C
:100050000C947D0007634236B79BD8A71A396856BF
:1000600018AEBAAB558C1D3CB7CC5763BD6DEDFDDA
:10007000753EF6177231BF000000803F0800000097
:10008000BE922449123EABAAAA2ABECDCCCC4C3E8D
:1000900000000080BEABAAAAAA3E00000000BF007C
:1000A0000000803F0000000000084178D3BB438778
:1000B000D1133D190E3CC3BD4282AD2B3E68EC828C
:1000C00076BED98FE1A93E4C80EFFFBE01C4FF7F11
:1000D0003F000000000011241FBECFE5D4E0DEBFCA
:1000E000CDBF20E0A0E6B0E001C01D92A239B2076A
:1000F000E1F70E949C010C9487050C9400002AB142
:1001000028612AB92AB1287F2AB920B52F7720BDC6
:10011000DC01CB01880F991FAA1FBB1F880F991FF5
:10012000AA1FBB1F9C01AD01220F331F441F551F87
:10013000220F331F441F551F60E072E18AE790E0F1
:100140000E944605DA01C9010197A109B109892F69
:100150009A2FAB2FBB2780BD215029B980B5866867
:1001600080BD80B5867880BD08955D9BFECF8CB93B
:1001700008950F931F93CF938C01C0E003C0CF5F0E
:100180000E94B500F801EC0FF11D80818111F7CFBD
:100190008AE00E94B500CF911F910F9108956150A0
:1001A000710920E030E00EC0DC01A20FB31F4C91BA
:1001B000FC01E60FF71F50815C9340832F5F3F4F98
:1001C00061507109261737077CF30895CF92DF92AB
:1001D000EF92FF920F931F93CF93DF938A016901F0
:1001E000C0E0D0E011C07801EC0EFD1E2AE030E046
:1001F00040E050E00E946805605DF7016083622F77
:10020000732F842F952F2196611571058105910516
:1002100051F706C0F801EC0FFD1F80E380832196A3
:10022000CC15DD05BCF3BE01C8010E94CF00F8016A
:10023000EC0FFD1F1082CE01DF91CF911F910F9126
:10024000FF90EF90DF90CF90089520E030E040E6FF
:1002500050E00E94E60080E690E00E94B900089518
:100260008F929F92AF92BF92CF92DF92EF92FF92C6
:100270000F931F93CF93DF934B015C018A01E90138
:100280000E941E026B01770FEE08FF08C701B6013E
:100290000E9456029B01AC01C501B4010E94B1014C
:1002A0004B015C0120E030E0A801C701B6010E94CB
:1002B000E6007C01209749F1F801E80FF91F8EE272
:1002C0008083BE010D2E000C880B990B0E945602F4
:1002D0009B01AC0160E070E080E291E40E944F037A
:1002E0009B01AC01C501B4010E94E2022FEFE21AAA
:1002F000F20A0E941E02A8014E0D5F1D072E000C7F
:10030000880B990B9E010E94E600DF91CF911F910F
:100310000F91FF90EF90DF90CF90BF90AF909F90A4
:100320008F9008959A0140E650E00E94300180E6E7
:1003300090E00E94B900089560E875E280E090E0E6
:100340000E947F006DE070E080E090E00E94250157
:1003500042E050E06DEC7CEC88E491E40E94920174
:10036000F1CF5058BB27AA270E94C9010C94A802BC
:100370000E949A0238F00E94A10220F039F49F3FB7
:1003800019F426F40C9497020EF4E095E7FB0C9414
:100390009102E92F0E94B90258F3BA176207730756
:1003A0008407950720F079F4A6F50C94DB020EF48F
:1003B000E0950B2EBA2FA02D0B01B90190010C0175
:1003C000CA01A0011124FF27591B99F0593F50F48D
:1003D000503E68F11A16F040A22F232F342F4427E5
:1003E000585FF3CF469537952795A795F0405395DD
:1003F000C9F77EF41F16BA0B620B730B840BBAF0AD
:100400009150A1F0FF0FBB1F661F771F881FC2F717
:100410000EC0BA0F621F731F841F48F4879577952B
:100420006795B795F7959E3F08F0B0CF9395880FE5
:1004300008F09927EE0F9795879508950E94250259
:100440006894B1110C94DC0208950E94C10288F0F6
:100450009F5798F0B92F9927B751B0F0E1F0660F88
:10046000771F881F991F1AF0BA95C9F714C0B130C9
:1004700091F00E94DB02B1E008950C94DB02672F3B
:10048000782F8827B85F39F0B93FCCF386957795F8
:100490006795B395D9F73EF49095809570956195E1
:1004A0007F4F8F4F9F4F0895E89409C097FB3EF40C
:1004B00090958095709561957F4F8F4F9F4F9923B1
:1004C000A9F0F92F96E9BB279395F695879577952F
:1004D0006795B795F111F8CFFAF4BB0F11F460FFEF
:1004E0001BC06F5F7F4F8F4F9F4F16C0882311F047
:1004F00096E911C0772321F09EE8872F762F05C05B
:10050000662371F096E8862F70E060E02AF09A95F5
:10051000660F771F881FDAF7880F9695879597F9EA
:10052000089597F99F6780E870E060E008959FEF75
:1005300080EC089500240A9416161706180609067A
:10054000089500240A941216130614060506089549
:10055000092E0394000C11F4882352F0BB0F40F4D1
:10056000BF2B11F460FF04C06F5F7F4F8F4F9F4F11
:10057000089557FD9058440F551F59F05F3F71F093
:100580004795880F97FB991F61F09F3F79F08795FA
:100590000895121613061406551FF2CF4695F1DF83
:1005A00008C0161617061806991FF1CF8695710513
:1005B000610508940895E894BB2766277727CB0147
:1005C00097F908950E94F5020C94A8020E949A02DD
:1005D00038F00E94A10220F0952311F00C949102B2
:1005E0000C94970211240C94DC020E94B90270F35F
:1005F000959FC1F3950F50E0551F629FF001729FC8
:10060000BB27F00DB11D639FAA27F00DB11DAA1FD6
:10061000649F6627B00DA11D661F829F2227B00D23
:10062000A11D621F739FB00DA11D621F839FA00DAE
:10063000611D221F749F3327A00D611D231F849FFE
:10064000600D211D822F762F6A2F11249F57504055
:100650009AF0F1F088234AF0EE0FFF1FBB1F661FD0
:10066000771F881F91505040A9F79E3F510580F099
:100670000C9491020C94DC025F3FE4F3983ED4F3B7
:10068000869577956795B795F795E7959F5FC1F73D
:10069000FE2B880F911D9695879597F90895FA017D
:1006A000EE0FFF1F309621053105A1F1611571058F
:1006B00061F48038BFE39B0749F168949038810565
:1006C00061F08038BFEF9B0741F099234AF5FF3F67
:1006D000E1053105210519F1E8940894E795D90160
:1006E000AA2329F4AB2FBE2FF85FD0F310C0FF5F11
:1006F00070F4A695E0F7F73950F019F0FF3A38F4A6
:100700009F779F930DD00F9007FC9058089546F067
:100710000C94970260E070E080E89FE308954FE753
:100720009F775F934F933F932F930E944A042F919B
:100730003F914F915F910E94E2020C94A70329F42C
:1007400016F00C9491020C94DB020C9497020E9418
:10075000C102A8F39638A0F707F80F92E8942BE3AC
:100760003AEA48EB5FE70E94F8020F920F920F926D
:100770004DB75EB70F920E949204E4E5F0E00E944C
:10078000D9034F915F91EF91FF91E595EE1FFF1F08
:1007900049F0FE57E0684427EE0F441FFA95E1F751
:1007A0004195550B0E940C040F9007FE0C94000419
:1007B0000895DF93CF931F930F93FF92EF92DF92F1
:1007C0007B018C01689406C0DA2EEF010E94F502CD
:1007D000FE01E894A5912591359145915591A6F397
:1007E000EF010E94C901FE019701A801DA9469F79F
:1007F000DF90EF90FF900F911F91CF91DF910895BF
:100800009B01AC0160E070E080E89FE30C94C604BB
:100810000C9491020C9438050E94C102D8F39923DC
:10082000C9F3940F511DA3F39150504094F059F027
:10083000882332F0660F771F881F91505040C1F710
:100840009E3F51052CF7880F911D9695879597F936
:1008500008955F3FACF0983E9CF0BB278695779556
:100860006795B79508F4B1609395C1F7BB0F58F73A
:1008700011F460FFE8CF6F5F7F4F8F4F9F4FE3CF43
:100880000C94DC0216F00C9438050C9497026894D2
:100890000C9491020E94C102A8F39923C1F3AEF314
:1008A000DF93CF931F930F93FF92C92FDD278823E8
:1008B0002AF02197660F771F881FDAF720E030E0D3
:1008C00040E85FEB9FE3883920F0803E38F02196C6
:1008D0008F770E94B201ECE7F0E004C00E94B20101
:1008E000E9EAF0E00E94D9038B01BE01EC01FB2E86
:1008F0006F5771097595771F880B990B0E945602E7
:1009000028E132E741E35FE30E94F502AF2D980151
:10091000AE01FF900F911F91CF91DF910E94C9010D
:100920000C94A802FA01DC01AA0FBB1F9B01AC01C9
:10093000BF5728F4222733274427507820C0B751C7
:1009400090F4AB2F0024469537952795011CA3956D
:10095000D2F3002071F0220F331F441FB395DAF356
:100960000ED00C94B10161307105A0E88A07B94638
:1009700030F49B01AC016627772788279078309662
:1009800021F0208331834283538308950E94DA0447
:100990000C94A8020E94A10258F00E949A0240F012
:1009A00029F45F3F29F00C94910251110C94DC0260
:1009B0000C9497020E94B90268F39923B1F355236E
:1009C00091F3951B550BBB27AA2762177307840762
:1009D00038F09F5F5F4F220F331F441FAA1FA9F3F8
:1009E00035D00E2E3AF0E0E832D091505040E695E6
:1009F000001CCAF72BD0FE2F29D0660F771F881F47
:100A0000BB1F261737074807AB07B0E809F0BB0B39
:100A1000802DBF01FF2793585F4F3AF09E3F51054D
:100A200078F00C9491020C94DC025F3FE4F3983E62
:100A3000D4F3869577956795B795F7959F5FC9F736
:100A4000880F911D9695879597F90895E1E0660FB7
:100A5000771F881FBB1F621773078407BA0720F030
:100A6000621B730B840BBA0BEE1F88F7E095089599
:100A70009F3F31F0915020F4879577956795B79512
:100A8000880F911D9695879597F90895A1E21A2EE2
:100A9000AA1BBB1BFD010DC0AA1FBB1FEE1FFF1F22
:100AA000A217B307E407F50720F0A21BB30BE40B72
:100AB000F50B661F771F881F991F1A9469F76095B9
:100AC0007095809590959B01AC01BD01CF01089573
:100AD000052E97FB1EF400940E947F0557FD07D05A
:100AE0000E94460507FC03D04EF40C947F055095F8
:100AF0004095309521953F4F4F4F5F4F089590950A
:100B00008095709561957F4F8F4F9F4F0895F89412
:020B1000FFCF15
:00000001FF
