:100000000C942A000C9434000C9434000C943400AA
:100010000C9434000C9434000C9434000C94340090
:100020000C9434000C9434000C9434000C94340080
:100030000C9434000C9434000C9434000C94340070
:100040000C9434000C9434000C9434000C94340060
:100050000C94340011241FBECFE5D4E0DEBFCDBF29
:100060000E944A000C9455000C94000015B814B876
:1000700087B18F7D87B980E487B986B1846E86B9F0
:1000800080B780BF089587B986B1806486B984B18E
:1000900095B108958FEF84BB81BB0E94360084E048
:0E00A0000E94430085BB82BBFACFF894FFCFCD
:00000001FF
