:100000000C942A000C9434000C9434000C943400AA
:100010000C9434000C9434000C9434000C94340090
:100020000C9434000C9434000C9434000C94340080
:100030000C9434000C9434000C9434000C94340070
:100040000C9434000C9434000C9434000C94340060
:100050000C94340011241FBECFE5D4E0DEBFCDBF29
:100060000E9436000C9450000C9400008FEF84BB6B
:1000700081BB15B814B887B117B887B18F7D87B920
:1000800087B1806C87B986B1846E86B980B780BF2E
:1000900086B1806486B984B185BB85B182BBF8CF57
:0400A000F894FFCF02
:00000001FF
