S01000004C43445F313658322E73726563F1
S11300000C942A000C9447000C9447000C9447006D
S11300100C9447000C9447000C9447000C94470040
S11300200C9447000C9447000C9447000C94470030
S11300300C9447000C9447000C9447000C94470020
S11300400C9447000C9447000C9447000C94470010
S11300500C94470011241FBECFE5D4E0DEBFCDBF12
S113006010E0A0E6B0E0E2E8F1E002C005900D92F5
S1130070A836B107D9F720E0A8E6B0E001C01D9288
S1130080A836B207E1F70E94B6000C94BF000C94A6
S11300900000882321F085B3816085BB03C085B34C
S11300A08E7F85BB85B38D7F85BB85B3846085BB1F
S11300B083ED90E30197F1F700C0000085B38B7FD7
S11300C085BB12BA089582BB80E00E94490008955E
S11300D084B3876084BB81B38FEF81BB85B3887F92
S11300E085BB82B312BA81E00E94630088E30E9458
S11300F063008EE00E94630086E00E94630080E853
S11301000E946300089582BB81E00E944900089523
S11301100F931F93CF93DF938C01C0E0D0E003C013
S11301200E9483002196F801EC0FFD1F808181114C
S1130130F7CFDF91CF911F910F910895CF93DF9364
S1130140EA01813031F4862F8F7080680E94630049
S113015007C0823029F4862F8F70806C0E94630060
S1130160CE010E948800DF91CF9108950E9468001B
S113017040E650E063E082E00E949E00FFCFF894E6
S1050180FFCFAB
S10B01824E6974657368000006
S9030000FC
