S01000004C43445F313658322E73726563F1
S11300000C942A000C9447000C9447000C9447006D
S11300100C9447000C9447000C9447000C94470040
S11300200C9447000C9447000C9447000C94470030
S11300300C9447000C9447000C9447000C94470020
S11300400C9447000C9447000C9447000C94470010
S11300500C94470011241FBECFE5D4E0DEBFCDBF12
S113006010E0A0E6B0E0E0EBF1E002C005900D92F4
S1130070A237B107D9F720E0A2E7B0E001C01D9292
S1130080A337B207E1F70E94CE000C94D6000C947B
S11300900000882321F085B3816085BB03C085B34C
S11300A08E7F85BB85B38D7F85BB85B3846085BB1F
S11300B083ED90E30197F1F700C0000085B38B7FD7
S11300C085BB12BA0895CF93C82F809172008823FC
S11300D079F08C2F807F82BB80E00E94490020E170
S11300E0C29FC001112482BB80E00E94490004C069
S11300F0C2BB80E00E944900CF9108959FEF94BB5A
S113010091BB882321F081E08093720002C0109299
S1130110720081E00E94630088E30E9463008CE027
S11301200E94630086E00E94630080E80E946300EE
S11301300895CF93C82F82BB80917200882379F0F1
S11301408C2F807F82BB81E00E94490020E1C29F06
S1130150C001112482BB81E00E94490004C0C2BBDB
S113016081E00E944900CF9108950F931F93CF938C
S1130170DF938C0181E00E946300C0E0D0E003C003
S11301800E9499002196F801EC0FFD1F80818111D6
S1130190F7CFDF91CF911F910F91089580E00E94D6
S11301A07E0080E690E00E94B500FFCFF894FFCF78
S11301B049206C6F7665206D7920496E6469612EE3
S10501C0000039
S9030000FC
