S01000004C43445F313658322E73726563F1
S11300000C942A000C9447000C9447000C9447006D
S11300100C9447000C9447000C9447000C94470040
S11300200C9447000C9447000C9447000C94470030
S11300300C9447000C9447000C9447000C94470020
S11300400C9447000C9447000C9447000C94470010
S11300500C94470011241FBECFE5D4E0DEBFCDBF12
S113006010E0A0E6B0E0EAE5F1E002C005900D92F0
S1130070A237B107D9F720E0A2E7B0E001C01D9292
S1130080A237B207E1F70E94A1000C94AB000C94D4
S11300900000882321F085B3816085BB03C085B34C
S11300A08E7F85BB85B38D7F85BB85B3846085BB1F
S11300B083ED90E30197F1F700C0000085B38B7FD7
S11300C085BB12BA089582BB80E00E94490008955E
S11300D084B3876084BB81B38FEF81BB85B3887F92
S11300E085BB81B311BA81E00E94630088E30E945A
S11300F063008EE00E94630086E00E94630080E853
S11301000E946300089582BB81E00E944900089523
S11301100F931F93CF93DF938C0181E00E946300C0
S1130120C0E0D0E003C00E9483002196F801EC0FE8
S1130130FD1F80818111F7CFDF91CF911F910F9126
S113014008950E94680080E690E00E9488008EE492
S10D01500E948300FFCFF894FFCF54
S113015A49206C6F7665206D7920496E6469612E39
S105016A00008F
S9030000FC
