:100000000C942A000C943C000C943C000C943C0092
:100010000C943C000C943C000C943C000C943C0070
:100020000C943C000C943C000C943C000C943C0060
:100030000C943C000C943C000C943C000C943C0050
:100040000C943C000C943C000C943C000C943C0040
:100050000C943C0011241FBECFE5D4E0DEBFCDBF21
:1000600020E0A0E6B0E001C01D92A136B207E1F7A2
:100070000E94DD000C94E4000C940000882321F021
:1000800085B3816085BB03C085B38E7F85BB85B397
:100090008D7F85BB85B3846085BB83ED90E301973D
:1000A000F1F700C0000085B38B7F85BB12BA0895BD
:1000B000CF93C82F80916000882319F18C2F807F07
:1000C00082BB80E00E943E002FE936E881E02150AB
:1000D00030408040E1F700C0000022B330E1C39F10
:1000E000C0011124822B82BB80E00E943E008FE978
:1000F00096E821E0815090402040E1F700C00000E8
:1001000004C0C2BB80E00E943E00CF91089594B32A
:10011000976094BB91B39FEF91BB95B3987F95BBCC
:1001200091B311BA882339F081E08093600082E0B6
:100130000E94580002C01092600081E00E945800A6
:1001400088E30E9458008EE00E94580086E00E94DA
:10015000580080E80E9458000895CF93C82F82BBB2
:1001600080916000882319F18C2F807F82BB81E011
:100170000E943E002FE936E881E021503040804067
:10018000E1F700C0000022B330E1C39FC001112499
:10019000822B82BB81E00E943E008FE996E821E03D
:1001A000815090402040E1F700C0000004C0C2BB75
:1001B00081E00E943E00CF91089581E00E94870077
:0C01C0008EE40E94AD00FFCFF894FFCF4A
:00000001FF
