S01200004932435F6D61737465722E7372656369
S11300000C942A000C943F000C943F000C943F0085
S11300100C943F000C943F000C943F000C943F0060
S11300200C943F000C943F000C943F000C943F0050
S11300300C943F000C943F000C943F000C943F0040
S11300400C943F000C943F000C943F000C943F0030
S11300500C943F0011241FBECFE5D4E0DEBFCDBF1A
S113006010E0A0E6B0E0E0E7F1E002C005900D92F8
S1130070AA36B107D9F70E9478000C94B6000C9404
S1130080000081B1836081B910B8089596B7946A6D
S113009096BF06B607FEFDCF91B1987F983079F4EC
S11300A083B986B7846886BF06B607FEFDCF81B1E3
S11300B0887F883131F0803231F482E0089580E025
S11300C0089581E0089583E0089583B986B784682C
S11300D086BF06B607FEFDCF81B1887F883221F046
S11300E0803321F481E0089580E0089583E0089549
S11300F00F931F93CF93DF93CDB7DEB72A970FB635
S1130100F894DEBF0FBECDBF85E0E0E6F0E0DE018F
S1130110119601900D928A95E1F7FE01369685E0DD
S1130120DF011D928A95E9F70E94410080E20E9456
S1130130460000E010E004C00E9465000F5F1F4FFE
S1130140E1E0F0E0EC0FFD1FE00FF11F8081811171
S1130150F3CF80E090E02A960FB6F894DEBF0FBE8E
S1130160CDBFDF91CF911F910F910895F894FFCFE8
S10D017054657374000000000000E1
S9030000FC
